{
  "_format": "hh-sol-artifact-1",
  "contractName": "SampleRecipient",
  "sourceName": "contracts/SampleRecipient.sol",
  "abi": [
    {
      "inputs": [
        {
          "internalType": "string",
          "name": "name",
          "type": "string"
        },
        {
          "internalType": "string",
          "name": "symbol",
          "type": "string"
        },
        {
          "internalType": "address",
          "name": "trustedForwarder",
          "type": "address"
        }
      ],
      "stateMutability": "nonpayable",
      "type": "constructor"
    },
    {
      "inputs": [
        {
          "internalType": "address",
          "name": "spender",
          "type": "address"
        },
        {
          "internalType": "uint256",
          "name": "allowance",
          "type": "uint256"
        },
        {
          "internalType": "uint256",
          "name": "needed",
          "type": "uint256"
        }
      ],
      "name": "ERC20InsufficientAllowance",
      "type": "error"
    },
    {
      "inputs": [
        {
          "internalType": "address",
          "name": "sender",
          "type": "address"
        },
        {
          "internalType": "uint256",
          "name": "balance",
          "type": "uint256"
        },
        {
          "internalType": "uint256",
          "name": "needed",
          "type": "uint256"
        }
      ],
      "name": "ERC20InsufficientBalance",
      "type": "error"
    },
    {
      "inputs": [
        {
          "internalType": "address",
          "name": "approver",
          "type": "address"
        }
      ],
      "name": "ERC20InvalidApprover",
      "type": "error"
    },
    {
      "inputs": [
        {
          "internalType": "address",
          "name": "receiver",
          "type": "address"
        }
      ],
      "name": "ERC20InvalidReceiver",
      "type": "error"
    },
    {
      "inputs": [
        {
          "internalType": "address",
          "name": "sender",
          "type": "address"
        }
      ],
      "name": "ERC20InvalidSender",
      "type": "error"
    },
    {
      "inputs": [
        {
          "internalType": "address",
          "name": "spender",
          "type": "address"
        }
      ],
      "name": "ERC20InvalidSpender",
      "type": "error"
    },
    {
      "inputs": [
        {
          "internalType": "address",
          "name": "owner",
          "type": "address"
        }
      ],
      "name": "OwnableInvalidOwner",
      "type": "error"
    },
    {
      "inputs": [
        {
          "internalType": "address",
          "name": "account",
          "type": "address"
        }
      ],
      "name": "OwnableUnauthorizedAccount",
      "type": "error"
    },
    {
      "anonymous": false,
      "inputs": [
        {
          "indexed": true,
          "internalType": "address",
          "name": "owner",
          "type": "address"
        },
        {
          "indexed": true,
          "internalType": "address",
          "name": "spender",
          "type": "address"
        },
        {
          "indexed": false,
          "internalType": "uint256",
          "name": "value",
          "type": "uint256"
        }
      ],
      "name": "Approval",
      "type": "event"
    },
    {
      "anonymous": false,
      "inputs": [
        {
          "indexed": true,
          "internalType": "address",
          "name": "previousOwner",
          "type": "address"
        },
        {
          "indexed": true,
          "internalType": "address",
          "name": "newOwner",
          "type": "address"
        }
      ],
      "name": "OwnershipTransferred",
      "type": "event"
    },
    {
      "anonymous": false,
      "inputs": [
        {
          "indexed": true,
          "internalType": "address",
          "name": "from",
          "type": "address"
        },
        {
          "indexed": true,
          "internalType": "address",
          "name": "to",
          "type": "address"
        },
        {
          "indexed": false,
          "internalType": "uint256",
          "name": "value",
          "type": "uint256"
        }
      ],
      "name": "Transfer",
      "type": "event"
    },
    {
      "inputs": [
        {
          "internalType": "address",
          "name": "owner",
          "type": "address"
        },
        {
          "internalType": "address",
          "name": "spender",
          "type": "address"
        }
      ],
      "name": "allowance",
      "outputs": [
        {
          "internalType": "uint256",
          "name": "",
          "type": "uint256"
        }
      ],
      "stateMutability": "view",
      "type": "function"
    },
    {
      "inputs": [
        {
          "internalType": "address",
          "name": "spender",
          "type": "address"
        },
        {
          "internalType": "uint256",
          "name": "value",
          "type": "uint256"
        }
      ],
      "name": "approve",
      "outputs": [
        {
          "internalType": "bool",
          "name": "",
          "type": "bool"
        }
      ],
      "stateMutability": "nonpayable",
      "type": "function"
    },
    {
      "inputs": [
        {
          "internalType": "address",
          "name": "account",
          "type": "address"
        }
      ],
      "name": "balanceOf",
      "outputs": [
        {
          "internalType": "uint256",
          "name": "",
          "type": "uint256"
        }
      ],
      "stateMutability": "view",
      "type": "function"
    },
    {
      "inputs": [],
      "name": "decimals",
      "outputs": [
        {
          "internalType": "uint8",
          "name": "",
          "type": "uint8"
        }
      ],
      "stateMutability": "view",
      "type": "function"
    },
    {
      "inputs": [
        {
          "internalType": "address",
          "name": "forwarder",
          "type": "address"
        }
      ],
      "name": "isTrustedForwarder",
      "outputs": [
        {
          "internalType": "bool",
          "name": "",
          "type": "bool"
        }
      ],
      "stateMutability": "view",
      "type": "function"
    },
    {
      "inputs": [
        {
          "internalType": "address",
          "name": "to",
          "type": "address"
        },
        {
          "internalType": "uint256",
          "name": "amount",
          "type": "uint256"
        }
      ],
      "name": "mint",
      "outputs": [],
      "stateMutability": "nonpayable",
      "type": "function"
    },
    {
      "inputs": [],
      "name": "name",
      "outputs": [
        {
          "internalType": "string",
          "name": "",
          "type": "string"
        }
      ],
      "stateMutability": "view",
      "type": "function"
    },
    {
      "inputs": [],
      "name": "owner",
      "outputs": [
        {
          "internalType": "address",
          "name": "",
          "type": "address"
        }
      ],
      "stateMutability": "view",
      "type": "function"
    },
    {
      "inputs": [],
      "name": "renounceOwnership",
      "outputs": [],
      "stateMutability": "nonpayable",
      "type": "function"
    },
    {
      "inputs": [],
      "name": "symbol",
      "outputs": [
        {
          "internalType": "string",
          "name": "",
          "type": "string"
        }
      ],
      "stateMutability": "view",
      "type": "function"
    },
    {
      "inputs": [],
      "name": "totalSupply",
      "outputs": [
        {
          "internalType": "uint256",
          "name": "",
          "type": "uint256"
        }
      ],
      "stateMutability": "view",
      "type": "function"
    },
    {
      "inputs": [
        {
          "internalType": "address",
          "name": "to",
          "type": "address"
        },
        {
          "internalType": "uint256",
          "name": "value",
          "type": "uint256"
        }
      ],
      "name": "transfer",
      "outputs": [
        {
          "internalType": "bool",
          "name": "",
          "type": "bool"
        }
      ],
      "stateMutability": "nonpayable",
      "type": "function"
    },
    {
      "inputs": [
        {
          "internalType": "address",
          "name": "from",
          "type": "address"
        },
        {
          "internalType": "address",
          "name": "to",
          "type": "address"
        },
        {
          "internalType": "uint256",
          "name": "value",
          "type": "uint256"
        }
      ],
      "name": "transferFrom",
      "outputs": [
        {
          "internalType": "bool",
          "name": "",
          "type": "bool"
        }
      ],
      "stateMutability": "nonpayable",
      "type": "function"
    },
    {
      "inputs": [
        {
          "internalType": "address",
          "name": "newOwner",
          "type": "address"
        }
      ],
      "name": "transferOwnership",
      "outputs": [],
      "stateMutability": "nonpayable",
      "type": "function"
    },
    {
      "inputs": [],
      "name": "trustedForwarder",
      "outputs": [
        {
          "internalType": "address",
          "name": "",
          "type": "address"
        }
      ],
      "stateMutability": "view",
      "type": "function"
    }
  ],
  "bytecode": "0x60a06040523480156200001157600080fd5b5060405162001ac138038062001ac18339818101604052810190620000379190620003e4565b8033848481600390816200004c9190620006c9565b5080600490816200005e9190620006c9565b505050600073ffffffffffffffffffffffffffffffffffffffff168173ffffffffffffffffffffffffffffffffffffffff1603620000d65760006040517f1e4fbdf7000000000000000000000000000000000000000000000000000000008152600401620000cd9190620007c1565b60405180910390fd5b620000e7816200012660201b60201c565b508073ffffffffffffffffffffffffffffffffffffffff1660808173ffffffffffffffffffffffffffffffffffffffff168152505050505050620007de565b6000600560009054906101000a900473ffffffffffffffffffffffffffffffffffffffff16905081600560006101000a81548173ffffffffffffffffffffffffffffffffffffffff021916908373ffffffffffffffffffffffffffffffffffffffff1602179055508173ffffffffffffffffffffffffffffffffffffffff168173ffffffffffffffffffffffffffffffffffffffff167f8be0079c531659141344cd1fd0a4f28419497f9722a3daafe3b4186f6b6457e060405160405180910390a35050565b6000604051905090565b600080fd5b600080fd5b600080fd5b600080fd5b6000601f19601f8301169050919050565b7f4e487b7100000000000000000000000000000000000000000000000000000000600052604160045260246000fd5b62000255826200020a565b810181811067ffffffffffffffff821117156200027757620002766200021b565b5b80604052505050565b60006200028c620001ec565b90506200029a82826200024a565b919050565b600067ffffffffffffffff821115620002bd57620002bc6200021b565b5b620002c8826200020a565b9050602081019050919050565b60005b83811015620002f5578082015181840152602081019050620002d8565b60008484015250505050565b60006200031862000312846200029f565b62000280565b90508281526020810184848401111562000337576200033662000205565b5b62000344848285620002d5565b509392505050565b600082601f83011262000364576200036362000200565b5b81516200037684826020860162000301565b91505092915050565b600073ffffffffffffffffffffffffffffffffffffffff82169050919050565b6000620003ac826200037f565b9050919050565b620003be816200039f565b8114620003ca57600080fd5b50565b600081519050620003de81620003b3565b92915050565b6000806000606084860312156200040057620003ff620001f6565b5b600084015167ffffffffffffffff811115620004215762000420620001fb565b5b6200042f868287016200034c565b935050602084015167ffffffffffffffff811115620004535762000452620001fb565b5b62000461868287016200034c565b92505060406200047486828701620003cd565b9150509250925092565b600081519050919050565b7f4e487b7100000000000000000000000000000000000000000000000000000000600052602260045260246000fd5b60006002820490506001821680620004d157607f821691505b602082108103620004e757620004e662000489565b5b50919050565b60008190508160005260206000209050919050565b60006020601f8301049050919050565b600082821b905092915050565b600060088302620005517fffffffffffffffffffffffffffffffffffffffffffffffffffffffffffffffff8262000512565b6200055d868362000512565b95508019841693508086168417925050509392505050565b6000819050919050565b6000819050919050565b6000620005aa620005a46200059e8462000575565b6200057f565b62000575565b9050919050565b6000819050919050565b620005c68362000589565b620005de620005d582620005b1565b8484546200051f565b825550505050565b600090565b620005f5620005e6565b62000602818484620005bb565b505050565b5b818110156200062a576200061e600082620005eb565b60018101905062000608565b5050565b601f82111562000679576200064381620004ed565b6200064e8462000502565b810160208510156200065e578190505b620006766200066d8562000502565b83018262000607565b50505b505050565b600082821c905092915050565b60006200069e600019846008026200067e565b1980831691505092915050565b6000620006b983836200068b565b9150826002028217905092915050565b620006d4826200047e565b67ffffffffffffffff811115620006f057620006ef6200021b565b5b620006fc8254620004b8565b620007098282856200062e565b600060209050601f8311600181146200074157600084156200072c578287015190505b620007388582620006ab565b865550620007a8565b601f1984166200075186620004ed565b60005b828110156200077b5784890151825560018201915060208501945060208101905062000754565b868310156200079b578489015162000797601f8916826200068b565b8355505b6001600288020188555050505b505050505050565b620007bb816200039f565b82525050565b6000602082019050620007d86000830184620007b0565b92915050565b6080516112c7620007fa60003960006104bc01526112c76000f3fe608060405234801561001057600080fd5b50600436106100f55760003560e01c806370a082311161009757806395d89b411161006657806395d89b4114610276578063a9059cbb14610294578063dd62ed3e146102c4578063f2fde38b146102f4576100f5565b806370a0823114610200578063715018a6146102305780637da0a8771461023a5780638da5cb5b14610258576100f5565b806323b872dd116100d357806323b872dd14610166578063313ce5671461019657806340c10f19146101b4578063572b6c05146101d0576100f5565b806306fdde03146100fa578063095ea7b31461011857806318160ddd14610148575b600080fd5b610102610310565b60405161010f9190610f1b565b60405180910390f35b610132600480360381019061012d9190610fd6565b6103a2565b60405161013f9190611031565b60405180910390f35b6101506103c5565b60405161015d919061105b565b60405180910390f35b610180600480360381019061017b9190611076565b6103cf565b60405161018d9190611031565b60405180910390f35b61019e6103fe565b6040516101ab91906110e5565b60405180910390f35b6101ce60048036038101906101c99190610fd6565b610407565b005b6101ea60048036038101906101e59190611100565b61041d565b6040516101f79190611031565b60405180910390f35b61021a60048036038101906102159190611100565b61045c565b604051610227919061105b565b60405180910390f35b6102386104a4565b005b6102426104b8565b60405161024f919061113c565b60405180910390f35b6102606104e0565b60405161026d919061113c565b60405180910390f35b61027e61050a565b60405161028b9190610f1b565b60405180910390f35b6102ae60048036038101906102a99190610fd6565b61059c565b6040516102bb9190611031565b60405180910390f35b6102de60048036038101906102d99190611157565b6105bf565b6040516102eb919061105b565b60405180910390f35b61030e60048036038101906103099190611100565b610646565b005b60606003805461031f906111c6565b80601f016020809104026020016040519081016040528092919081815260200182805461034b906111c6565b80156103985780601f1061036d57610100808354040283529160200191610398565b820191906000526020600020905b81548152906001019060200180831161037b57829003601f168201915b5050505050905090565b6000806103ad6106cc565b90506103ba8185856106db565b600191505092915050565b6000600254905090565b6000806103da6106cc565b90506103e78582856106ed565b6103f2858585610781565b60019150509392505050565b60006012905090565b61040f610875565b61041982826108fc565b5050565b60006104276104b8565b73ffffffffffffffffffffffffffffffffffffffff168273ffffffffffffffffffffffffffffffffffffffff16149050919050565b60008060008373ffffffffffffffffffffffffffffffffffffffff1673ffffffffffffffffffffffffffffffffffffffff168152602001908152602001600020549050919050565b6104ac610875565b6104b6600061097e565b565b60007f0000000000000000000000000000000000000000000000000000000000000000905090565b6000600560009054906101000a900473ffffffffffffffffffffffffffffffffffffffff16905090565b606060048054610519906111c6565b80601f0160208091040260200160405190810160405280929190818152602001828054610545906111c6565b80156105925780601f1061056757610100808354040283529160200191610592565b820191906000526020600020905b81548152906001019060200180831161057557829003601f168201915b5050505050905090565b6000806105a76106cc565b90506105b4818585610781565b600191505092915050565b6000600160008473ffffffffffffffffffffffffffffffffffffffff1673ffffffffffffffffffffffffffffffffffffffff16815260200190815260200160002060008373ffffffffffffffffffffffffffffffffffffffff1673ffffffffffffffffffffffffffffffffffffffff16815260200190815260200160002054905092915050565b61064e610875565b600073ffffffffffffffffffffffffffffffffffffffff168173ffffffffffffffffffffffffffffffffffffffff16036106c05760006040517f1e4fbdf70000000000000000000000000000000000000000000000000000000081526004016106b7919061113c565b60405180910390fd5b6106c98161097e565b50565b60006106d6610a44565b905090565b6106e88383836001610a87565b505050565b60006106f984846105bf565b90507fffffffffffffffffffffffffffffffffffffffffffffffffffffffffffffffff811461077b578181101561076b578281836040517ffb8f41b2000000000000000000000000000000000000000000000000000000008152600401610762939291906111f7565b60405180910390fd5b61077a84848484036000610a87565b5b50505050565b600073ffffffffffffffffffffffffffffffffffffffff168373ffffffffffffffffffffffffffffffffffffffff16036107f35760006040517f96c6fd1e0000000000000000000000000000000000000000000000000000000081526004016107ea919061113c565b60405180910390fd5b600073ffffffffffffffffffffffffffffffffffffffff168273ffffffffffffffffffffffffffffffffffffffff16036108655760006040517fec442f0500000000000000000000000000000000000000000000000000000000815260040161085c919061113c565b60405180910390fd5b610870838383610c5e565b505050565b61087d6106cc565b73ffffffffffffffffffffffffffffffffffffffff1661089b6104e0565b73ffffffffffffffffffffffffffffffffffffffff16146108fa576108be6106cc565b6040517f118cdaa70000000000000000000000000000000000000000000000000000000081526004016108f1919061113c565b60405180910390fd5b565b600073ffffffffffffffffffffffffffffffffffffffff168273ffffffffffffffffffffffffffffffffffffffff160361096e5760006040517fec442f05000000000000000000000000000000000000000000000000000000008152600401610965919061113c565b60405180910390fd5b61097a60008383610c5e565b5050565b6000600560009054906101000a900473ffffffffffffffffffffffffffffffffffffffff16905081600560006101000a81548173ffffffffffffffffffffffffffffffffffffffff021916908373ffffffffffffffffffffffffffffffffffffffff1602179055508173ffffffffffffffffffffffffffffffffffffffff168173ffffffffffffffffffffffffffffffffffffffff167f8be0079c531659141344cd1fd0a4f28419497f9722a3daafe3b4186f6b6457e060405160405180910390a35050565b6000610a4f3361041d565b8015610a6057506014600036905010155b15610a7457601436033560601c9050610a83565b610a7c610e83565b9050610a84565b5b90565b600073ffffffffffffffffffffffffffffffffffffffff168473ffffffffffffffffffffffffffffffffffffffff1603610af95760006040517fe602df05000000000000000000000000000000000000000000000000000000008152600401610af0919061113c565b60405180910390fd5b600073ffffffffffffffffffffffffffffffffffffffff168373ffffffffffffffffffffffffffffffffffffffff1603610b6b5760006040517f94280d62000000000000000000000000000000000000000000000000000000008152600401610b62919061113c565b60405180910390fd5b81600160008673ffffffffffffffffffffffffffffffffffffffff1673ffffffffffffffffffffffffffffffffffffffff16815260200190815260200160002060008573ffffffffffffffffffffffffffffffffffffffff1673ffffffffffffffffffffffffffffffffffffffff168152602001908152602001600020819055508015610c58578273ffffffffffffffffffffffffffffffffffffffff168473ffffffffffffffffffffffffffffffffffffffff167f8c5be1e5ebec7d5bd14f71427d1e84f3dd0314c0f7b2291e5b200ac8c7c3b92584604051610c4f919061105b565b60405180910390a35b50505050565b600073ffffffffffffffffffffffffffffffffffffffff168373ffffffffffffffffffffffffffffffffffffffff1603610cb0578060026000828254610ca4919061125d565b92505081905550610d83565b60008060008573ffffffffffffffffffffffffffffffffffffffff1673ffffffffffffffffffffffffffffffffffffffff16815260200190815260200160002054905081811015610d3c578381836040517fe450d38c000000000000000000000000000000000000000000000000000000008152600401610d33939291906111f7565b60405180910390fd5b8181036000808673ffffffffffffffffffffffffffffffffffffffff1673ffffffffffffffffffffffffffffffffffffffff16815260200190815260200160002081905550505b600073ffffffffffffffffffffffffffffffffffffffff168273ffffffffffffffffffffffffffffffffffffffff1603610dcc5780600260008282540392505081905550610e19565b806000808473ffffffffffffffffffffffffffffffffffffffff1673ffffffffffffffffffffffffffffffffffffffff168152602001908152602001600020600082825401925050819055505b8173ffffffffffffffffffffffffffffffffffffffff168373ffffffffffffffffffffffffffffffffffffffff167fddf252ad1be2c89b69c2b068fc378daa952ba7f163c4a11628f55a4df523b3ef83604051610e76919061105b565b60405180910390a3505050565b600033905090565b600081519050919050565b600082825260208201905092915050565b60005b83811015610ec5578082015181840152602081019050610eaa565b60008484015250505050565b6000601f19601f8301169050919050565b6000610eed82610e8b565b610ef78185610e96565b9350610f07818560208601610ea7565b610f1081610ed1565b840191505092915050565b60006020820190508181036000830152610f358184610ee2565b905092915050565b600080fd5b600073ffffffffffffffffffffffffffffffffffffffff82169050919050565b6000610f6d82610f42565b9050919050565b610f7d81610f62565b8114610f8857600080fd5b50565b600081359050610f9a81610f74565b92915050565b6000819050919050565b610fb381610fa0565b8114610fbe57600080fd5b50565b600081359050610fd081610faa565b92915050565b60008060408385031215610fed57610fec610f3d565b5b6000610ffb85828601610f8b565b925050602061100c85828601610fc1565b9150509250929050565b60008115159050919050565b61102b81611016565b82525050565b60006020820190506110466000830184611022565b92915050565b61105581610fa0565b82525050565b6000602082019050611070600083018461104c565b92915050565b60008060006060848603121561108f5761108e610f3d565b5b600061109d86828701610f8b565b93505060206110ae86828701610f8b565b92505060406110bf86828701610fc1565b9150509250925092565b600060ff82169050919050565b6110df816110c9565b82525050565b60006020820190506110fa60008301846110d6565b92915050565b60006020828403121561111657611115610f3d565b5b600061112484828501610f8b565b91505092915050565b61113681610f62565b82525050565b6000602082019050611151600083018461112d565b92915050565b6000806040838503121561116e5761116d610f3d565b5b600061117c85828601610f8b565b925050602061118d85828601610f8b565b9150509250929050565b7f4e487b7100000000000000000000000000000000000000000000000000000000600052602260045260246000fd5b600060028204905060018216806111de57607f821691505b6020821081036111f1576111f0611197565b5b50919050565b600060608201905061120c600083018661112d565b611219602083018561104c565b611226604083018461104c565b949350505050565b7f4e487b7100000000000000000000000000000000000000000000000000000000600052601160045260246000fd5b600061126882610fa0565b915061127383610fa0565b925082820190508082111561128b5761128a61122e565b5b9291505056fea2646970667358221220a5667c4f2409ede9789c4a31ad987802116ac9dfb5b9060d70e1226facafabb764736f6c63430008140033",
  "linkReferences": {},
  "deployedLinkReferences": {}
}